S01700004763634170706C69636174696F6E312E737265635B
S11300005AC072C09CC063C16FC06EC06DC06CC06A
S11300106BC06AC069C068C067C066C065C064C0A0
S113002063C0000102030405060708090A0B0C0D4E
S11300300E0F101112131415161718191A1B1C1D64
S11300401F202123242627292B2C2E303234363806
S11300503A3C3E404345474A4C4F515457595C5FE4
S11300606264676A6D707376797C7F8285888B8E13
S11300709194979A9C9FA2A5A7AAADAFB2B4B7B921
S1130080BBBEC0C2C4C6C8CACCCED0D2D3D5D7D8C2
S1130090DADBDDDEDFE1E2E3E4E5E6E7E8E9EAEB2B
S11300A0ECEDEEEFF0F1F1F2F3F4F5F6F7F8F9FA1E
S11300B0FBFCFDFEFF0011241FBECFEDCDBF10E001
S11300C0A0E6B0E0ECE6F3E002C005900D92A236A3
S11300D0B107D9F720E0A2E6B0E001C01D92AA362C
S11300E0B207E1F702D040C18BCF7894D89AD99A5D
S11300F0DA9A909A919A929A80B5816080BD8BB772
S113010080618BBF8BB780628BBF82E990E0909354
S1130110690080936800E4EBF0E0859194918CBFD2
S113012086BF1092670081E080936400809366002C
S11301301092650083EA80BF82E083BFFFCF1F92E5
S11301400F920FB60F9211242F933F938F939F9387
S1130150EF93FF9389B3282F247090916000922726
S11301609430C1F42430A1F43091670091E09327D6
S113017090936700992351F0909166009111BA9A77
S113018090916400992321F0D79A02C0BA98D79825
S11301902093600090916700992309F48DC08370C7
S11301A090916200923029F4833009F071C022E00A
S11301B012C0933029F4813009F47CC020E00BC0D4
S11301C0913009F06DC0811165C022E064C08230B5
S11301D009F06BC022E0933021F4823061F421E015
S11301E00AC0923019F4882351F005C0911103C05C
S11301F0813009F45CC0222309F45EC001C021E00F
S113020080936200213019F02230F1F055C08091C2
S1130210680090916900823091053CF002979093B8
S1130220690080936800029724F410926900109288
S11302306800E0916800F0916900EE5DFF4F8591E0
S113024094918CBF86BF38C08091680090916900FA
S1130250813991052CF4029690936900809368008B
S113026080916800909169008039910534F082E9A9
S113027090E09093690080936800E0916800F091A9
S11302806900EE5DFF4F859194918CBF86BF14C0C9
S113029020E0A1CF20E0833009F0A8CF21E0A6CF51
S11302A0992309F494CF20E096CF20E094CF809353
S11302B06200ADCF22E08FCFFF91EF919F918F919C
S11302C03F912F910F900FBE0F901F9018951F9282
S11302D00F920FB60F9211248F939F938091670012
S11302E08823D9F186B38170909163009827913067
S11302F0A1F5813081F5909165009F5F9093650031
S1130300933018F01092650006C0913051F018F047
S1130310923069F012C091E090936600909364006B
S113032012C01092640091E0909366000CC091E0BA
S1130330909364001092660004C09091660091113D
S113034002C0BA9801C0BA9A90916400911102C097
S1130350D79801C0D79A809363009F918F910F9093
S10F03600FBE0F901F901895F894FFCF6B
S105036C040087
S9030000FC
